:100000006F00C0006F0000006F00C0029702000088
:10001000938282027390523073500030735040309C
:10002000970100209381017E171100201301811098
:100030006F00001E130101F823201100232221006C
:10004000232431002326410023285100232A610064
:10005000232C7100232E8100232091022322A10250
:100060002324B1022326C1022328D102232AE1023C
:10007000232CF102232E0103232011052322210525
:10008000232431052326410523285105232A610510
:10009000232C7105232E8105232091072322A107FC
:1000A0002324B1072326C1072328D107232AE107E8
:1000B000232CF107F3221034232E5106732520340C
:1000C000F325103413060100EF00C04A73101534F5
:1000D000B72200009382028073A0023083200100C7
:1000E00003214100832181000322C10083220101F9
:1000F00003234101832381010324C10183240102DD
:1001000003254102832581020326C10283260103C0
:1001100003274103832781030328C10383280104A4
:100120000329410483298104032AC104832A010588
:10013000032B4105832B8105032CC105832C01066C
:10014000032D4106832D8106032EC106832E010750
:10015000032F4107832F810713010108730020300B
:10016000130101FE232E8100130401022326A4FEA5
:100170002324B4FE2322C4FE6F00C0028327C4FEE2
:1001800003A70700832784FE23A0E7008327C4FE7C
:10019000938747002326F4FE832784FE9387470036
:1001A0002324F4FE032784FE832744FEE3F8E7FCC0
:1001B000130000000324C101130101026780000045
:1001C000130101FD2326810213040103232EA4FC45
:1001D000232CB4FC8327C4FD2326F4FE6F0080018A
:1001E0008327C4FE23A007008327C4FE938747000C
:1001F0002326F4FE0327C4FE832784FDE3F2E7FEF3
:10020000130000000324C1021301010367800000F2
:10021000130101FE232E1100232C8100130401027F
:10022000B72700609387079C2326F4FE8327C4FE2C
:100230002320F4FE232204FE232404FE13860181DE
:10024000B707008093850700B7270060138507A7CD
:10025000EFF01FF11386018F93850181B7270060AE
:10026000138507A8EFF0DFEF938501901385018FC9
:10027000EFF01FF59385019313850190EFF05FF484
:10028000930704FE9385070013051000EF108056B6
:10029000130000008320C101032481011301010226
:1002A00067800000130101FF232681001304010170
:1002B000130000000324C100130101016780000046
:1002C000130101FD2326810213040103232EA4FC44
:1002D000F32740F12326F4FE8327C4FE2324F4FEF3
:1002E000370700408327C4FD93D75700832684FE39
:1002F00093965600B386F600B717000093870780E1
:10030000B387F60093972700B307F70083A707008A
:100310002322F4FE8327C4FD93F7F701130710008F
:10032000B317F70093C7F7FF032744FEB377F7002F
:100330002322F4FE370700408327C4FD93D75700DC
:10034000832684FE93965600B386F600B717000006
:1003500093870780B387F60093972700B307F700CA
:10036000032744FE23A0E700130000000324C1027A
:100370001301010367800000130101FE232E810099
:1003800013040102F32740F12326F4FE8327C4FE61
:100390002324F4FE37070040832784FE9387072039
:1003A0009397C700B307F70083A74700138507009B
:1003B0000324C1011301010267800000130101FD44
:1003C0002326810213040103232EA4FCF32740F10A
:1003D0002326F4FE8327C4FE2324F4FE37070040BF
:1003E000832784FE938707209397C700B307F700FE
:1003F0000327C4FD23A2E700130000000324C10269
:100400001301010367800000130101FE232E810008
:1004100013040102F36704302326F4FE13000000E6
:100420000324C1011301010267800000130101FED2
:10043000232E1100232C81001304010293070008CE
:10044000F3B747302326F4FEEF00002137070044BE
:10045000B7C70000B307F70003A8C7FF83A787FF4C
:1004600083A5018F03A6418F37050044732740F110
:100470002324E4FE832884FEB386B700138306009A
:100480003333F3003307C800B307E30013870700D3
:10049000938706001308070037170000130707802B
:1004A0003387E800131737003307E5002320F700F0
:1004B0002322070193070008F3A747302322F4FE05
:1004C000130000008320C1010324810113010102F4
:1004D00067800000130101FE232E1100232C8100F0
:1004E00013040102EFF05FE92326A4FEA30504FE36
:1004F000B70700800327C4FE13172700938707015F
:10050000B307F70083A70700E780070093070500FC
:10051000A305F4FE0325C4FEEFF05FEA0347B4FE33
:10052000930710006316F7000325C4FEEFF05FD9B0
:10053000130000008320C101032481011301010283
:1005400067800000130101FF23261100232481008E
:1005500013040101EF00C00EB707004423A00700F9
:10056000130000008320C100032481001301010156
:1005700067800000130101FE232E1100232C81004F
:10058000130401022326A4FE2324B4FE8327C4FE01
:1005900063D207020327C4FEB707008093C7F7FFA3
:1005A0003377F7009307B0006316F700EFF09FF280
:1005B0006F0080078327C4FE63D207020327C4FEAF
:1005C000B707008093C7F7FF3377F70093077000F2
:1005D0006316F700EFF09FE56F0000058327C4FE68
:1005E00063D207020327C4FEB707008093C7F7FF53
:1005F0003377F700930730006316F700EFF09FF4AE
:100600006F00800213065000B72700609385879C17
:1006100013051000EF1080338327C4FE9387170063
:1006200013850700EF000041832784FE1385070030
:100630008320C101032481011301010267800000AE
:10064000130101FF2326110023248100130401015B
:100650001305A000EF00003E130101FF23268100D7
:1006600013040101130000000324C1001301010160
:1006700067800000130101FF23268100130401019C
:1006800093070000138507000324C1001301010133
:1006900067800000130101FF23268100130401017C
:1006A00093070000138507000324C1001301010113
:1006B00067800000130101FF23268100130401015C
:1006C00093070000138507000324C10013010101F3
:1006D00067800000130101FF23268100130401013C
:1006E00093070000138507000324C10013010101D3
:1006F00067800000130101FF23268100130401011C
:1007000093070000138507000324C10013010101B2
:1007100067800000130101FF2326810013040101FB
:1007200093070000138507000324C1001301010192
:1007300067800000130101FF2326810013040101DB
:1007400093070000138507000324C1001301010172
:1007500067800000130101FF2326810013040101BB
:1007600093070000138507000324C1001301010152
:1007700067800000130101FF23268100130401019B
:1007800093070000138507000324C1001301010132
:1007900067800000130101FF23268100130401017B
:1007A00093070000138507000324C1001301010112
:1007B00067800000130101FF23268100130401015B
:1007C00093070000138507000324C10013010101F2
:1007D00067800000130101FF23268100130401013B
:1007E00093070000138507000324C10013010101D2
:1007F00067800000130101FF23268100130401011B
:1008000093070000138507000324C10013010101B1
:1008100067800000130101FF2326810013040101FA
:1008200093070000138507000324C1001301010191
:1008300067800000130101FF2326810013040101DA
:1008400093070000138507000324C1001301010171
:1008500067800000130101FF2326810013040101BA
:1008600093070000138507000324C1001301010151
:1008700067800000130101FF23268100130401019A
:1008800093070000138507000324C1001301010131
:1008900067800000130101FF23268100130401017A
:1008A00093070000138507000324C1001301010111
:1008B00067800000130101FF23268100130401015A
:1008C00093070000138507000324C10013010101F1
:1008D00067800000130101FF23268100130401013A
:1008E00093070000138507000324C10013010101D1
:1008F00067800000130101FF23268100130401011A
:1009000093070000138507000324C10013010101B0
:1009100067800000130101FF2326810013040101F9
:1009200093070000138507000324C1001301010190
:1009300067800000130101FF2326810013040101D9
:1009400093070000138507000324C1001301010170
:1009500067800000130101FF2326810013040101B9
:1009600093070000138507000324C1001301010150
:1009700067800000130101FF232681001304010199
:1009800093070000138507000324C1001301010130
:1009900067800000130101FF232681001304010179
:1009A00093070000138507000324C1001301010110
:1009B00067800000130101FF232681001304010159
:1009C00093070000138507000324C10013010101F0
:1009D00067800000130101FF232681001304010139
:1009E00093070000138507000324C10013010101D0
:1009F00067800000130101FF232681001304010119
:100A000093070000138507000324C10013010101AF
:100A100067800000130101FF2326810013040101F8
:100A200093070000138507000324C100130101018F
:100A300067800000130101FE232E810013040102D0
:100A40002326A4FE6F000000130101FE232E810067
:100A5000130401022326A4FE0327C4FE23A0E19071
:100A60009307F0FF138507000324C101130101025E
:100A700067800000130101FE232E1100232C81004A
:100A8000130401022326A4FE2324B4FE2322C4FE61
:100A900013059000EFF05FFB930705001385070037
:100AA0008320C1010324810113010102678000003A
:100AB000130101FF232611002324810013040101E7
:100AC000EFF09F94130000008320C10003248100F5
:100AD00013010101678000002320B500678000003A
:100AE0000325050067800000138E0600331EBE003C
:100AF000337ECE00032305009303060093C3F3FF68
:100B0000337373003363C3012320650067800000E3
:100B1000032505003375C5003355B5006780000017
:100B20002310B500678000000315050067800000F2
:100B3000138E0600331EBE00337ECE000313050065
:100B40009303060093C3F3FF337373003363C3014E
:100B50002310650067800000031505003375C5008C
:100B60003355B500678000002300B50067800000A2
:100B70000305050067800000138E0600331EBE00CB
:100B8000337ECE00030305009303060093C3F3FFF7
:100B9000337373003363C301230065006780000073
:100BA000030505003375C5003355B50067800000A7
:100BB000130101FD232611022324810213040103E2
:100BC000232EA4FC232CB4FC9307060013870600F5
:100BD000231BF4FC93070700A30AF4FC8327C4FD3E
:100BE000638A070C034754FD9307700063E4E70C26
:100BF000035764FDB7270000637EF70A832784FD4F
:100C000013878700835764FD93F7F70F93850700D9
:100C100013050700EFF05FF5832784FD9386C70077
:100C2000034754FD835764FD93D7574093F7877F5D
:100C3000B367F7009385070013850600EFF0DFF236
:100C40008327C4FD032784FD23A0E7008327C4FD79
:100C500083A707009387070113850700EFF05FF173
:100C60009307050093F72700A307F4FE6F008003A6
:100C70008327C4FD83A707009387470013850700D8
:100C8000EFF01FEF8327C4FD83A7070093870701B9
:100C900013850700EFF0DFED9307050093F72700BA
:100CA000A307F4FE8347F4FEE39407FC8327C4FD07
:100CB00023820700130000008320C1020324810265
:100CC0001301010367800000130101FD23261102B7
:100CD0002324810213040103232EA4FC232CB4FC3F
:100CE000232AC4FC8327C4FD63800708832784FD6F
:100CF000638C0706832744FD63880706232604FECA
:100D00006F00C0058327C4FD83A7070093870701F1
:100D100013850700EFF0DFE59307050093F7170051
:100D2000A305F4FE8347B4FEE38E07FC8327C4FDCE
:100D300083A60700032784FD8327C4FEB307F700BB
:100D400083C707009385070013850600EFF0DFE1F6
:100D50008327C4FE938717002326F4FE0327C4FECF
:100D6000832744FDE360F7FA130000008320C102EB
:100D7000032481021301010367800000130101FDB8
:100D8000232611022324810223229102130401034A
:100D9000232EA4FC232CB4FC232AC4FC232404FE0D
:100DA0008327C4FD6386070E832784FD6382070EB5
:100DB000832744FD638E070C232404FE8327C4FD90
:100DC00083A707009387070113850700EFF05FDA19
:100DD00093070500A303F4FE8327C4FD03C7470060
:100DE000834774FEB367F70013F7F70F8327C4FD3B
:100DF0002382E700834774FE93F72700A307F4FEDE
:100E00006F00C0078327C4FD83A7070093864700B0
:100E1000032784FD832784FEB304F70013850600AF
:100E2000EFF01FD5930705002380F400832784FE8D
:100E3000938717002324F4FE8327C4FD83A70700AC
:100E40009387070113850700EFF09FD293070500F2
:100E5000A303F4FE8327C4FD03C74700834774FE42
:100E6000B367F70013F7F70F8327C4FD2382E7006A
:100E7000834774FE93F72700A307F4FE8347F4FE2D
:100E800063880700032784FE832744FDE36CF7F69D
:100E9000832784FE138507008320C1020324810277
:100EA000832441021301010367800000130101FD47
:100EB000232611022324810213040103232EA4FC00
:100EC000232CB4FC8327C4FD63800708832784FD9B
:100ED000638C0706232604FE6F00C0058327C4FD2C
:100EE00083A707009387070113850700EFF05FC80A
:100EF0009307050093F71700A305F4FE8347B4FE9C
:100F0000E38E07FC8327C4FD83A60700032784FD27
:100F10008327C4FEB307F70083C707009385070044
:100F200013850600EFF05FC48327C4FE9387170084
:100F30002326F4FE032784FD8327C4FEB307F700AE
:100F400083C70700E39C07F8130000008320C10259
:100F5000032481021301010367800000130101FDD6
:100F60002326110223248102130401032326A4FE55
:100F70002324B4FE930706002320D4FE232EE4FC92
:100F8000A303F4FE8327C4FE032784FE23A0E70007
:100F9000832784FE938787009306000013062000B2
:100FA0009305100013850700EFF01FB4832784FE1C
:100FB0009387870093060000130610009305000036
:100FC00013850700EFF05FB2832784FE9387070144
:100FD0009305100013850700EFF01FB0832784FEF0
:100FE0009387C700832504FE13850700EFF0DFAE6B
:100FF0008325C4FD032584FEEFF01FAE834774FEF6
:1010000063920702832784FE93878700930600007C
:10101000130640009305200013850700EFF0DFACB6
:101020006F000002832784FE9387870093061000D9
:10103000130640009305200013850700EFF0DFAA98
:10104000130000008320C102032481021301010365
:1010500067800000130101FE232E1100232C810064
:10106000130401022326A4FE8327C4FE83A70700DE
:101070009387870093061000130610009305000065
:1010800013850700EFF05FA6130000008320C10165
:10109000032481011301010267800000130101FE96
:1010A000232E1100232C8100130401022326A4FE09
:1010B0008327C4FE83A70700938787009306100049
:1010C000130620009305100013850700EFF0DFA141
:1010D000130000008320C1010324810113010102D8
:1010E00067800000130101FE232E1100232C8100D4
:1010F000130401022326A4FE8327C4FE83A707004E
:10110000938707019305100013850700EFF0DF9C1C
:10111000130000008320C101032481011301010297
:1011200067800000130101FD2326110223248102A0
:1011300013040103232EA4FC232CB4FC232AC4FC97
:10114000A30704FE832784FD2324F4FE8327C4FD24
:10115000032784FD23A0E7008327C4FD032744FD64
:1011600023A2E700A30704FE832784FD2324F4FEC3
:101170006F00800293050000032584FEEFF0DF9EE0
:10118000832784FE938747002324F4FE8347F4FEDD
:1011900093871700A307F4FE0347F4FE9307F001BB
:1011A000E3FAE7FC8327C4FD83A747001307100079
:1011B000638AE7021307100063E4E70613072000C1
:1011C0006384E7006F00000C8327C4FD83A707003A
:1011D000938707089305F0FF13850700EFF0DF8F73
:1011E0006F00400A8327C4FD83A707001387070801
:1011F000B70701009385F7FF13050700EFF05F9233
:101200008327C4FD83A7070013874708B70701009A
:101210009385F7FF13050700EFF09F906F0080069E
:101220008327C4FD83A70700938707089305F00F62
:1012300013850700EFF05F938327C4FD83A70700A2
:10124000938747089305F00F13850700EFF0DF91B0
:101250008327C4FD83A70700938787089305F00FB2
:1012600013850700EFF05F908327C4FD83A7070075
:101270009387C7089305F00F13850700EFF0DF8E03
:1012800013000000130000008320C1020324810228
:101290001301010367800000130101FE232E1100DA
:1012A000232C8100130401022326A4FE2324B4FE70
:1012B0008327C4FE83A7470013071000638AE70251
:1012C0001307100063EEE706130720006384E700AE
:1012D0006F0000108327C4FE83A707009387070AC7
:1012E000832584FE13850700EFF00FFF6F00400E8B
:1012F0008327C4FE83A707009387070A032784FE7A
:1013000013170701135707019305070013850700FB
:10131000EFF01F818327C4FE83A707001387470AC6
:10132000832784FE93D707019397070193D707017B
:101330009385070013050700EFF08FFE6F0040094B
:101340008327C4FE83A707009387070A032784FE29
:101350001377F70F9305070013850700EFF0DF8081
:101360008327C4FE83A707001387470A832784FEC9
:1013700093D7870093F7F70F9385070013050700AE
:10138000EFF08FFE8327C4FE83A707001387870A29
:10139000832784FE93D7070193F7F70F9385070000
:1013A00013050700EFF04FFC8327C4FE83A7070057
:1013B0001387C70A832784FE93D7870193F7F70F14
:1013C0009385070013050700EFF00FFA13000000E4
:1013D000130000008320C1010324810113010102D5
:1013E00067800000130101FD2326110223248102DE
:1013F00013040103232EA4FC232604FE8327C4FD2B
:1014000083A7470013071000638AE7021307100041
:1014100063E2E708130720006384E7006F0080128F
:101420008327C4FD83A70700938707091385070057
:10143000EFF00FEB2326A4FE6F00C0108327C4FD3E
:1014400083A707009387070913850700EFF0CFED07
:1014500093070500138707008327C4FEB3E7E7005F
:101460002326F4FE8327C4FD83A70700938747093B
:1014700013850700EFF04FEB9307050093970701E3
:10148000138707008327C4FEB3E7E7002326F4FE93
:101490006F00400B8327C4FD83A7070093870709CC
:1014A00013850700EFF0CFEC9307050013870700C3
:1014B0008327C4FEB3E7E7002326F4FE8327C4FD99
:1014C00083A707009387470913850700EFF04FEACA
:1014D0009307050093978700138707008327C4FEAF
:1014E000B3E7E7002326F4FE8327C4FD83A70700A4
:1014F0009387870913850700EFF08FE793070500AF
:1015000093970701138707008327C4FEB3E7E7001B
:101510002326F4FE8327C4FD83A707009387C7090A
:1015200013850700EFF0CFE4930705009397870139
:10153000138707008327C4FEB3E7E7002326F4FEE2
:10154000130000008327C4FE138507008320C10217
:10155000032481021301010367800000130101FECF
:10156000232E810013040102F32740F12324F4FE0B
:10157000832784FE2322F4FE232604FE6F00C0038B
:1015800037070040832744FE939657008327C4FE05
:10159000B386F600B717000093870780B387F6007D
:1015A00093972700B307F70023A007008327C4FE03
:1015B000938717002326F4FE8327C4FEE38207FCEB
:1015C000232604FE6F004002370700408327C4FE35
:1015D00093972700B307F70023A007008327C4FED3
:1015E000938717002326F4FE0327C4FE9307E00128
:1015F000E3FCE7FC37070040832744FE938707207E
:101600009397C700B307F70023A00700B7170000A0
:1016100093870780F3A747302320F4FE13000000D0
:101620000324C1011301010267800000130101FDC1
:101630002326810213040103232EA4FCF32740F187
:101640002326F4FE8327C4FE2324F4FE370700403C
:101650008327C4FD93D75700832684FE93965600B4
:10166000B386F600B717000093870780B387F600AC
:1016700093972700B307F70083A707002322F4FE00
:101680008327C4FD93F7F70113071000B317F70082
:10169000032744FEB367F7002322F4FE3707004018
:1016A0008327C4FD93D75700832684FE9396560064
:1016B000B386F600B717000093870780B387F6005C
:1016C00093972700B307F700032744FE23A0E70002
:1016D000130000000324C10213010103678000000E
:1016E000130101FE232E8100130401022326A4FE10
:1016F0002324B4FE370700408327C4FE93972700B6
:10170000B307F700032784FE23A0E70013000000BF
:101710000324C1011301010267800000130101FECF
:10172000232E1100232C8100130401021385C19183
:10173000EFF05FCB2326A4FE8327C4FE93C7F7FFF9
:1017400093F7070F2324F4FE83A741921397170002
:1017500023A2E19203A741929307400063F6E700BA
:101760001307100023A2E19283A74192032784FE6E
:10177000B367F7002324F4FE832584FE138581904C
:10178000EFF09FB113854190EFF0DF9593070000D4
:10179000138507008320C101032481011301010285
:1017A00067800000130101FF23261100232481001C
:1017B0001304010183A741921387170023A2E1922A
:1017C00083A74192939787009385070013858190A3
:1017D000EFF09FAC13850191EFF0DF9093070000CD
:1017E000138507008320C100032481001301010138
:1017F00067800000130101FD2326110223248102CA
:1018000013040103232EA4FC232CB4FCEFF01FD5FA
:1018100013062000B72500701385C191EFF09F904B
:1018200013062000B755007013858190EFF09F8F4D
:101830009306100013069025B7150070138541918B
:10184000EFF00FB7B707008083A707009385070065
:1018500013854191EFF08FE5B74701001387874368
:101860009306900013060000B73500701385419071
:10187000EFF0CFEEB7A70000138707419306800073
:1018800013060000B745007013850191EFF00FEDCE
:10189000930510001305E001EFF09FE4930510009D
:1018A0001305F001EFF0DFE31305E001EFF01FD8BF
:1018B0001305F001EFF09FD713854190EFF00FFE75
:1018C00013850191EFF08FFDEFF08F9E130710004D
:1018D00023A2E19213854190EFF0CFF71385019198
:1018E000EFF04FF71385C191EFF0DFAF2326A4FE91
:1018F0009307A4FE130610009385070013854191FA
:10190000EFF0CFC793070500A305F4FE8347B4FEAD
:10191000638C07009307A4FE13061000938507004D
:1019200013854191EFF04FBA8327C4FE93C7F7FFA9
:1019300013F7070F83A74192B367F700938507005A
:1019400013858190EFF05F956FF0DFF997E7FF1F48
:101950009387876B930606001386050093050500A1
:1019600003A507006F004000130101FF232481003D
:101970001304050013850500930506001386060071
:1019800023A0019023261100EFF0CF8E9307F0FFE4
:10199000631AF5009387019083A70700638407000B
:1019A0002320F4008320C1000324810013010101DE
:1019B0006780000000000000000000000000000040
:1019C00068656C6C6F000000747261700A00000042
:1019D0000D0A090909436F726554494D455220614A
:1019E0006E642065787465726E616C20496E7465F2
:1019F0007272757074204578616D706C65090909A3
:101A00000D0A0D0A4F627365727665207468652051
:101A10004C45447320626C696E6B696E67206F6E13
:101A20002074686520626F6172642E20546865209E
:101A30004C4544207061747465726E206368616EF9
:101A40006765732065766572792074696D652061BC
:101A50002074696D657220696E7465727275707438
:101A6000206F63637572730D0A00000000000000B0
:101A7000D01900609000008000000000000000000D
:101A80007406006094060060B4060060D40600602E
:101A9000F40600601407006034070060540700601B
:101AA0007407006094070060B4070060D40700600A
:101AB000F4070060140800603408006054080060F7
:101AC0007408006094080060B4080060D4080060E6
:101AD000F4080060140900603409006054090060D3
:101AE0007409006094090060B4090060D4090060C2
:101AF000F4090060140A00601C170060A41700605D
:101B000000000000000000000000000000000000D5
:101B100000000000000000000000000000000000C5
:101B200000000000000000000000000000000000B5
:101B300000000000000000000000000000000000A5
:101B40000000000000000000000000000000000095
:101B50000000000000000000000000000000000085
:040000056000000097
:00000001FF
