:1000000000000120910100007F0300008103000037
:100010008303000085030000870300000000000048
:100020000000000000000000000000008903000044
:100030008B030000000000008D0300008F03000010
:100040009103000093030000950300009703000054
:10005000990300009B0300009D0300009F03000024
:10006000A1030000A3030000A5030000A7030000F4
:10007000A9030000AB030000AD030000AF030000C4
:10008000B1030000B3030000B5030000B703000094
:10009000B9030000BB030000BD030000BF03000064
:1000A000C1030000C3030000C5030000C703000034
:1000B000C9030000CB030000CD030000CF03000004
:1000C000D1030000D3030000D5030000D7030000D4
:1000D000D9030000DB030000DD030000DF030000A4
:1000E000E1030000E3030000E5030000E703000074
:1000F000E9030000EB030000ED030000EF03000044
:10010000F1030000F3030000F5030000F703000013
:10011000F9030000FB030000FD030000FF030000E3
:1001200001040000030400000504000007040000AF
:10013000090400000B0400000D0400000F0400007F
:10014000110400001304000015040000170400004F
:10015000190400001B0400001D0400001F0400001F
:1001600021040000230400002504000027040000EF
:10017000290400002B0400002D0400002F040000BF
:100180003104000033040000000000000000000003
:100190004FF0000BDFF8BE020068DFF8B612096806
:1001A00001F0030100F01C00142801D14BF0020BF8
:1001B000002901D04BF0010BBBF1000F05D0A7487F
:1001C000A749DFF8722200F09FF8A64880470BF09D
:1001D000020ABAF1000F0CD0DFF86E02DFF86E12DF
:1001E00002680B680FB44FF000024FF0FF0302608B
:1001F0000B609D4800220123022808D1DFF83E123F
:100200000A60DFF842120A60DFF836120B6001283C
:1002100008D1DFF82E120A60DFF82A120A60DFF830
:100220001E120B609148002809D191489149924AC9
:1002300000F032F891489249924A00F02DF8924825
:100240009249934A00F028F892489349DFF8E62152
:1002500000F05AF8BBF1000F12D090489049DFF837
:10026000DA2100F051F80BF0020ABAF1000F07D0C2
:100270000FBC02600B6000BFAFF30080AFF30080E3
:10028000DFF820020FF2030E00474FF000004FF09E
:100290000001DFF814F2FEE72DE9F841884225D08D
:1002A000B2EB010200D5FEE740EA010313F00303BD
:1002B00002D000F01DF819E04FF000039046121133
:1002C000F7D09A421CBFF0C8F0C103F10103F8D186
:1002D00008F00F08B8F1000F08D004780C7000F196
:1002E000010001F10101B8F10108F6D1BDE8F88182
:1002F00008B54FF0000303780B7000F1010001F125
:100300000101013AF7D108BD884237D000F0030659
:10031000002E14D04FF00405A5EB06044FF008079B
:1003200007FB06F8914669FA08F9002C07D080F817
:10033000009069FA07F900F10100013CF5E74FF080
:1003400000060F46091A88460911914614461546BB
:10035000B14206D018BFA0E8340206F10106B1424E
:10036000F8D108F00F08B8F1000F07D002704FEA7B
:10037000322200F10100B8F10108F4E77047FEE70E
:10038000FEE7FEE7FEE7FEE7FEE7FEE7FEE7FEE745
:10039000FEE7FEE7FEE7FEE7FEE7FEE7FEE7FEE735
:1003A000FEE7FEE7FEE7FEE7FEE7FEE7FEE7FEE725
:1003B000FEE7FEE7FEE7FEE7FEE7FEE7FEE7FEE715
:1003C000FEE7FEE7FEE7FEE7FEE7FEE7FEE7FEE705
:1003D000FEE7FEE7FEE7FEE7FEE7FEE7FEE7FEE7F5
:1003E000FEE7FEE7FEE7FEE7FEE7FEE7FEE7FEE7E5
:1003F000FEE7FEE7FEE7FEE7FEE7FEE7FEE7FEE7D5
:10040000FEE7FEE7FEE7FEE7FEE7FEE7FEE7FEE7C4
:10041000FEE7FEE7FEE7FEE7FEE7FEE7FEE7FEE7B4
:10042000FEE7FEE7FEE7FEE7FEE7FEE7FEE7FEE7A4
:10043000FEE7FEE7704700000000A2A2A2A2008033
:100440000340088003401080034030800340348024
:1004500003403880034018080240000000F00020EC
:1004600000000120AD0400000000000001000000B9
:10047000000000600000000090010000C006006065
:10048000C006000050090000500900600000002074
:1004900030040020300400205004002050040020CC
:1004A00000F00020BD070000790700004FF60202AF
:1004B00038B53A4BD3F84C11914262D0384A53695F
:1004C00043F400735361354B996861B1FFF7B2FF94
:1004D000324A936C23F480339364324B1A6842F0AF
:1004E00003021A6049E0304B30481B6830F8112095
:1004F00043F82120013139292C4AF7D102F170004B
:1005000003F5077103F5487430F8025F41F8045BA6
:10051000A142F9D1B2F8F410C3F80014B2F8F61001
:10052000C3F80414B2F8F810C3F80814B2F8FA10BB
:10053000C3F80C14B2F8FC10C3F81014B2F8FE1093
:10054000C3F81414B2F80011C3F81814B2F8021169
:10055000C3F81C14B2F80411C3F84014B2F8061121
:10056000B2F80821C3F84414C3F8482401221A60E1
:10057000D3F8E420002AFBD0A8E75A68D207FCD5BC
:1005800038BDD3F8982042F48072C3F89820D3F88D
:10059000982022F08062C3F898208FE70080034003
:1005A00000ED00E000200240BC060000B0050000A5
:1005B00000000000081190020200000001009F09E5
:1005C00000003333FFFF7777FF0F01000042080080
:1005D000520944000000000080026500E5010200AD
:1005E000280078012300330D0400000000330000D0
:1005F00000000C0400000000000002000000802049
:10060000F8800700F88007000002000000000400E6
:10061000030040000000000000000000090301008A
:100620000000000000008000000000000300000047
:1006300000000000000000000B00000000000000AF
:1006400000008000042000010800000000000000FD
:100650000000000001000000000000000000000099
:10066000504001051450000008001800000005006B
:10067000000000000000000000000000000000007A
:1006800050000105105000000000000000000000B4
:100690000000430000000300010001000000000012
:1006A0000000010000000000000000000000000049
:1006B00000000000000000000000000000080240F0
:1006C00010B5054C237833B9044B13B10448AFF38C
:1006D00000800123237010BD3004002000000000C2
:1006E00020090000084B10B51BB108490848AFF3BA
:1006F00000800848036803B910BD074B002BFBD0EE
:10070000BDE81040184700BF00000000340400207E
:10071000200900000000002000000000144B10B56C
:100720009A6C144C42F480129A649A6C012042F044
:10073000F0729A6400221357013203F01F015B0923
:100740009B0003F1604300FA01F103F56143202AA5
:10075000C3F88010C3F88011EDD1054B9A6C22F0DC
:10076000F0729A649A6C22F480129A6410BD00BFF1
:1007700000800340F808000007B5FFF7CFFF0D4BDE
:100780004FF05532C3F8882072B630BF4FF0AA320E
:10079000C3F88820084A1168C9090191019A1AB161
:1007A000019A013A0192F9E7D3F88820D243C3F8BD
:1007B0008820F2E7003001400400002070B50F4EA1
:1007C0000F4D761BB61018BF002405D0013455F824
:1007D000043B9847A642F9D10A4E0B4D00F0A0F811
:1007E000761BB61018BF002406D0013455F8043B20
:1007F0009847A642F9D170BD70BD00BF380900000E
:10080000380900004009000038090000024B13B10C
:10081000024800F005B87047000000002D080000F5
:10082000002301461A46184600F014B838B5074DA3
:10083000074C2C1BA41005D0013C55F8043D9847EB
:10084000002CF9D1BDE8384000F070B84409000030
:10085000400900002DE9F047254C064625688846EA
:10086000D5F8484192469946C4B360681F2817DC02
:10087000411C76B104EB8003C3F888A0D4F88851FA
:10088000012282401543022EC4F88851C3F8089112
:100890001ED0831C6160002044F82380BDE8F087EF
:1008A000144B03B34FF4C870AFF300800446D0B1CB
:1008B000D5F84831002784E888003846C5F8484113
:1008C0000121C4F88871C4F88C71002EE1D0D1E701
:1008D000D4F88C311A43C4F88C21DAE705F5A674F4
:1008E000C5F84841C1E74FF0FF30BDE8F08700BFD1
:1008F0001C09000000000000323334353637383927
:100900003A3B3C3D3E3F40414243444546474849CF
:100910004A4B4C4D4E4F5051430000000800002000
:10092000F8B500BFF8BC08BC9E467047F8B500BFDC
:10093000F8BC08BC9E4670470D080000E5060000A4
:10094000C1060000000000000000000000000000E0
:1009500000000000C07AF20400000000F402002051
:100960005C030020C4030020000000000000000021
:100970000000000000000000000000000000000077
:100980000000000000000000000000001809000046
:100990000000000000000000000000000000000057
:1009A0000000000000000000000000000000000047
:1009B0000000000000000000000000000000000037
:1009C0000000000000000000000000000000000027
:1009D0000000000000000000000000000000000017
:1009E0000000000000000000000000000000000007
:1009F00000000000000000000000000000000000F7
:100A000001000000000000000E33CDAB34126DE693
:100A1000ECDE05000B0000000000000000000000FC
:100A200000000000000000000000000000000000C6
:100A300000000000000000000000000000000000B6
:100A400000000000000000000000000000000000A6
:100A50000000000000000000000000000000000096
:040000030000019167
:00000001FF
