:100000006F00C0006F0000006F0040039702000007
:10001000938202037390523073500030735030302B
:10002000735020307350403097210000938181102D
:1000300017310000130101E76F00001E130101F8E2
:1000400023201100232221002324310023264100F4
:1000500023285100232A6100232C7100232E8100C4
:10006000232091022322A1022324B1022326C102CC
:100070002328D102232AE102232CF102232E01039B
:1000800023201105232221052324310523264105A0
:1000900023285105232A6105232C7105232E810570
:1000A000232091072322A1072324B1072326C10778
:1000B0002328D107232AE107232CF107F322103448
:1000C000232E510673252034F32510341306010026
:1000D000EF00C05973101534B722000093820280DC
:1000E00073A002308320010003214100832181009D
:1000F0000322C100832201010323410183238101E3
:100100000324C101832401020325410283258102C6
:100110000326C102832601030327410383278103AA
:100120000328C1038328010403294104832981048E
:10013000032AC104832A0105032B4105832B810572
:10014000032CC105832C0106032D4106832D810656
:10015000032EC106832E0107032F4107832F81073A
:100160001301010873002030130101FE232E8100CA
:10017000130401022326A4FE2324B4FE2322C4FE7A
:100180006F00C0028327C4FE03A70700832784FEF5
:1001900023A0E7008327C4FE938747002326F4FEAD
:1001A000832784FE938747002324F4FE032784FEDD
:1001B000832744FEE3F8E7FC130000000324C10199
:1001C0001301010267800000130101FD2326810253
:1001D00013040103232EA4FC232CB4FC8327C4FDA9
:1001E0002326F4FE6F0080018327C4FE23A00700AE
:1001F0008327C4FE938747002326F4FE0327C4FE0B
:10020000832784FDE3F2E7FE130000000324C1020C
:100210001301010367800000130101FE232E11006A
:10022000232C810013040102B727008093870788DD
:100230002326F4FE8327C4FE2320F4FE232204FE9B
:10024000232404FEB727008013860794B727008075
:1002500093850793B727008013850793EFF0DFF0AE
:10026000B7270080138607DFB727008093850794A0
:10027000B727008013850794EFF01FEFB7270080A2
:10028000938507E0B7270080138507DFEFF0DFF3E2
:10029000B7270080938507EAB7270080138507E01A
:1002A000EFF09FF2930704FE9385070013051000FB
:1002B000EF10403C9307050013850700EF10C0477F
:1002C000130101FD2326810213040103232EA4FC44
:1002D000F32740F12326F4FE8327C4FE2324F4FEF3
:1002E000370700408327C4FD93D75700832684FE39
:1002F00093965600B386F600B717000093870780E1
:10030000B387F60093972700B307F70083A707008A
:100310002322F4FE8327C4FD93F7F701130710008F
:10032000B317F70093C7F7FF032744FEB377F7002F
:100330002322F4FE370700408327C4FD93D75700DC
:10034000832684FE93965600B386F600B717000006
:1003500093870780B387F60093972700B307F700CA
:10036000032744FE23A0E700130000000324C1027A
:100370001301010367800000130101FE232E810099
:1003800013040102F32740F12326F4FE8327C4FE61
:100390002324F4FE37070040832784FE9387072039
:1003A0009397C700B307F70083A74700138507009B
:1003B0000324C1011301010267800000130101FD44
:1003C0002326810213040103232EA4FCF32740F10A
:1003D0002326F4FE8327C4FE2324F4FE37070040BF
:1003E000832784FE938707209397C700B307F700FE
:1003F0000327C4FD23A2E700130000000324C10269
:100400001301010367800000130101FE232E810008
:1004100013040102F36704302326F4FE13000000E6
:100420000324C1011301010267800000130101FDD3
:10043000232611022324810213040103232EA4FC8A
:10044000130710002326E4FE8326C4FD130740068D
:1004500033D7E60293070700130800003727008010
:100460002328F7DE232A07DFB727008083A607DFCC
:1004700003A747DF93870600B3E7E7006386070813
:10048000F32740F12324F4FE832784FE2322F4FE85
:1004900037070044B7C70000B307F70003A8C7FF3A
:1004A00083A787FF37270080832507DF032647DFE1
:1004B00037050044B386B70093880600B3B8F80048
:1004C0003307C800B387E800138707009387060047
:1004D00013080700832644FE371700001307078020
:1004E0003387E600131737003307E5002320F700B2
:1004F0002322070193070008F3A747302320F4FEC7
:10050000EFF09FF0232604FE8327C4FE1385070027
:100510008320C102032481021301010367800000CC
:10052000130101FE232E1100232C8100130401026C
:1005300093070008F3B747302326F4FEEF10000AB4
:1005400037070044B7C70000B307F70003A8C7FF89
:1005500083A787FF37270080832507DF032647DF30
:1005600037050044732740F12324E4FE832884FEEA
:10057000B386B700138306003333F3003307C80094
:10058000B307E300138707009387060013080700EB
:1005900037170000130707803387E8001317370069
:1005A0003307E5002320F700232207019307000803
:1005B000F3A747302322F4FE130000008320C1017B
:1005C000032481011301010267800000130101FE71
:1005D000232E1100232C810013040102EFF0DFD938
:1005E0002326A4FEA30504FEB72700800327C4FE2C
:1005F0001317270093870794B307F70083A7070013
:10060000E780070093070500A305F4FE0325C4FE59
:10061000EFF0DFDA0347B4FE930710006316F7002C
:100620000325C4FEEFF0DFC9130000008320C101E1
:10063000032481011301010267800000130101FFFF
:10064000232611002324810013040101EF00C00EB2
:10065000B707004423A00700130000008320C10057
:10066000032481001301010167800000130101FED2
:10067000232E1100232C8100130401022326A4FE43
:100680002324B4FE8327C4FE63D207020327C4FEDB
:10069000B707008093C7F7FF3377F7009307B000E1
:1006A0006316F700EFF09FF26F0080078327C4FE08
:1006B00063D207020327C4FEB707008093C7F7FF82
:1006C0003377F700930770006316F700EFF05FE5EC
:1006D0006F0000058327C4FE63D207020327C4FE10
:1006E000B707008093C7F7FF3377F7009307300011
:1006F0006316F700EFF09FF46F00800213065000BE
:10070000B72700809385878813051000EF00804885
:100710008327C4FE9387170013850700EF0040432B
:10072000832784FE138507008320C10103248101F0
:100730001301010267800000130101FF232611004D
:1007400023248100130401011305A000EF004040A1
:10075000130101FF23268100130401019307000008
:10076000138507000324C100130101016780000005
:10077000130101FF232681001304010193070000E8
:10078000138507000324C1001301010167800000E5
:10079000130101FF232681001304010193070000C8
:1007A000138507000324C1001301010167800000C5
:1007B000130101FF232681001304010193070000A8
:1007C000138507000324C1001301010167800000A5
:1007D000130101FF23268100130401019307000088
:1007E000138507000324C100130101016780000085
:1007F000130101FF23268100130401019307000068
:10080000138507000324C100130101016780000064
:10081000130101FF23268100130401019307000047
:10082000138507000324C100130101016780000044
:10083000130101FF23268100130401019307000027
:10084000138507000324C100130101016780000024
:10085000130101FF23268100130401019307000007
:10086000138507000324C100130101016780000004
:10087000130101FF232681001304010193070000E7
:10088000138507000324C1001301010167800000E4
:10089000130101FF232681001304010193070000C7
:1008A000138507000324C1001301010167800000C4
:1008B000130101FF232681001304010193070000A7
:1008C000138507000324C1001301010167800000A4
:1008D000130101FF23268100130401019307000087
:1008E000138507000324C100130101016780000084
:1008F000130101FF23268100130401019307000067
:10090000138507000324C100130101016780000063
:10091000130101FF23268100130401019307000046
:10092000138507000324C100130101016780000043
:10093000130101FF23268100130401019307000026
:10094000138507000324C100130101016780000023
:10095000130101FF23268100130401019307000006
:10096000138507000324C100130101016780000003
:10097000130101FF232681001304010193070000E6
:10098000138507000324C1001301010167800000E3
:10099000130101FF232681001304010193070000C6
:1009A000138507000324C1001301010167800000C3
:1009B000130101FF232681001304010193070000A6
:1009C000138507000324C1001301010167800000A3
:1009D000130101FF23268100130401019307000086
:1009E000138507000324C100130101016780000083
:1009F000130101FF23268100130401019307000066
:100A0000138507000324C100130101016780000062
:100A1000130101FF23268100130401019307000045
:100A2000138507000324C100130101016780000042
:100A3000130101FF23268100130401019307000025
:100A4000138507000324C100130101016780000022
:100A5000130101FF23268100130401019307000005
:100A6000138507000324C100130101016780000002
:100A7000130101FF232681001304010193070000E5
:100A8000138507000324C1001301010167800000E2
:100A9000130101FF232681001304010193070000C5
:100AA000138507000324C1001301010167800000C2
:100AB000130101FF232681001304010193070000A5
:100AC000138507000324C1001301010167800000A2
:100AD000130101FF23268100130401019307000085
:100AE000138507000324C100130101016780000082
:100AF000130101FF23268100130401019307000065
:100B0000138507000324C100130101016780000061
:100B1000130101FF23268100130401019307000044
:100B2000138507000324C100130101016780000041
:100B3000130101FF23268100130401019307000024
:100B4000138507000324C100130101016780000021
:100B5000130101FE232E8100130401022326A4FEAB
:100B60006F000000130101FE232E81001304010217
:100B70002326A4FEB72700800327C4FE23A0E7E0B6
:100B80009307F0FF138507000324C101130101023D
:100B900067800000130101FE232E1100232C810029
:100BA000130401022326A4FE2324B4FE2322C4FE40
:100BB00013059000EFF01FFB930705001385070056
:100BC0008320C10103248101130101026780000019
:100BD000130101FD2326810213040103232EA4FC2B
:100BE000232CB4FC8327C4FD2326F4FE8327C4FEF4
:100BF000032784FD23A0E700130000000324C102A3
:100C00001301010367800000130101FD2326810207
:100C100013040103232EA4FC8327C4FD2326F4FE22
:100C20008327C4FE83A70700138507000324C1029E
:100C30001301010367800000130101FD23268102D7
:100C400013040103232EA4FC232CB4FC8327C4FD2E
:100C50002326F4FE832784FD13970701135707010A
:100C60008327C4FE2390E700130000000324C10281
:100C70001301010367800000130101FD2326810297
:100C800013040103232EA4FC8327C4FD2326F4FEB2
:100C90008327C4FE83D707009397070193D70701E3
:100CA000138507000324C1021301010367800000BC
:100CB000130101FD2326810213040103232EA4FC4A
:100CC000232CB4FC8327C4FD2326F4FE832784FD54
:100CD00013F7F70F8327C4FE2380E70013000000FB
:100CE0000324C1021301010367800000130101FD09
:100CF0002326810213040103232EA4FC8327C4FDB1
:100D00002326F4FE8327C4FE83C7070093F7F70F5B
:100D1000138507000324C10213010103678000004B
:100D2000130101FD23261102232481021304010370
:100D3000232EA4FC232CB4FC930706001387060083
:100D4000231BF4FC93070700A30AF4FC8327C4FDCC
:100D5000638E070C034754FD9307700063E8E70CAC
:100D6000035764FDB72700006372F70C832784FDE7
:100D700013878700835764FD93F7F70F9385070068
:100D800013050700EFF0DFF2832784FD9386C70089
:100D9000034754FD835764FD93D7574093F7877FEC
:100DA000B367F7009385070013850600EFF05FF047
:100DB0008327C4FD032784FD23A0E7008327C4FD08
:100DC00083A707009387070113850700EFF01FF241
:100DD0009307050093F72700A307F4FE6F000004B4
:100DE0008327C4FD83A70700938747001385070067
:100DF000EFF0DFEF930705002307F4FE8327C4FD20
:100E000083A707009387070113850700EFF01FEE04
:100E10009307050093F72700A307F4FE8347F4FE2A
:100E2000E39007FC8327C4FD238207001300000022
:100E30008320C102032481021301010367800000A3
:100E4000130101FD2326110223248102130401034F
:100E5000232EA4FC232CB4FC232AC4FC8327C4FD2A
:100E600063800708832784FD638C0706832744FD7E
:100E700063880706232604FE6F00C0058327C4FD90
:100E800083A707009387070113850700EFF01FE68C
:100E90009307050093F71700A305F4FE8347B4FEFC
:100EA000E38E07FC8327C4FD83A60700032784FD88
:100EB0008327C4FEB307F70083C7070093850700A5
:100EC00013850600EFF0DFDE8327C4FE938717004B
:100ED0002326F4FE0327C4FE832744FDE360F7FACC
:100EE000130000008320C1020324810213010103C7
:100EF00067800000130101FD2326110223248102D3
:100F00002322910213040103232EA4FC232CB4FCFE
:100F1000232AC4FC232404FE8327C4FD6386070E12
:100F2000832784FD6382070E832744FD638E070CAD
:100F3000232404FE8327C4FD83A7070093870701AA
:100F400013850700EFF09FDA93070500A303F4FE73
:100F50008327C4FD03C74700834774FEB367F700C8
:100F600013F7F70F8327C4FD2382E700834774FE3E
:100F700093F72700A307F4FE6F00C0078327C4FD83
:100F800083A7070093864700032784FD832784FEF9
:100F9000B304F70013850600EFF05FD59307050053
:100FA0002380F400832784FE938717002324F4FE14
:100FB0008327C4FD83A707009387070113850700D4
:100FC000EFF0DFD293070500A303F4FE8327C4FDEF
:100FD00003C74700834774FEB367F70013F7F70FA3
:100FE0008327C4FD2382E700834774FE93F727001D
:100FF000A307F4FE8347F4FE63880700032784FEFB
:10100000832744FDE36CF7F6832784FE13850700EE
:101010008320C102032481028324410213010103BE
:1010200067800000130101FD2326110223248102A1
:1010300013040103232EA4FC232CB4FC8327C4FD3A
:1010400063800708832784FD638C0706232604FE3C
:101050006F00C0058327C4FD83A70700938707019E
:1010600013850700EFF09FC89307050093F717005B
:10107000A305F4FE8347B4FEE38E07FC8327C4FD7B
:1010800083A60700032784FD8327C4FEB307F70068
:1010900083C707009385070013850600EFF05FC143
:1010A0008327C4FE938717002326F4FE032784FDBD
:1010B0008327C4FEB307F70083C70700E39C07F844
:1010C000130000008320C1020324810213010103E5
:1010D00067800000130101FD2326110223248102F1
:1010E00013040103232EA4FC232CB4FC232AC4FCE8
:1010F000A30704FE832784FD2324F4FE8327C4FD75
:10110000032784FD23A0E7008327C4FD032744FDB4
:1011100023A2E700A30704FE832784FD2324F4FE13
:101120006F00800293050000032584FEEFF05FB896
:10113000832784FE938747002324F4FE8347F4FE2D
:1011400093871700A307F4FE0347F4FE9307F0010B
:10115000E3FAE7FC8327C4FD83A7470013071000C9
:10116000638AE7021307100063E4E7061307200011
:101170006384E7006F00000C8327C4FD83A707008A
:10118000938707089305F0FF13850700EFF05FA42E
:101190006F00400A8327C4FD83A707001387070851
:1011A000B70701009385F7FF13050700EFF0DFA8ED
:1011B0008327C4FD83A7070013874708B7070100EB
:1011C0009385F7FF13050700EFF01FA76F00800658
:1011D0008327C4FD83A70700938707089305F00FB3
:1011E00013850700EFF0DFAC8327C4FD83A707005A
:1011F000938747089305F00F13850700EFF05FAB67
:101200008327C4FD83A70700938787089305F00F02
:1012100013850700EFF0DFA98327C4FD83A707002C
:101220009387C7089305F00F13850700EFF05FA8B9
:1012300013000000130000008320C1020324810278
:101240001301010367800000130101FE232E11002A
:10125000232C8100130401022326A4FE2324B4FEC0
:101260008327C4FE83A7470013071000638AE702A1
:101270001307100063EEE706130720006384E700FE
:101280006F0000108327C4FE83A707009387070A17
:10129000832584FE13850700EFF09F936F00400EB7
:1012A0008327C4FE83A707009387070A032784FECA
:1012B000131707011357070193050700138507004C
:1012C000EFF09F978327C4FE83A707001387470A81
:1012D000832784FE93D707019397070193D70701CC
:1012E0009385070013050700EFF01F956F00400975
:1012F0008327C4FE83A707009387070A032784FE7A
:101300001377F70F9305070013850700EFF05F9A37
:101310008327C4FE83A707001387470A832784FE19
:1013200093D7870093F7F70F9385070013050700FE
:10133000EFF01F988327C4FE83A707001387870A4F
:10134000832784FE93D7070193F7F70F9385070050
:1013500013050700EFF0DF958327C4FE83A707007E
:101360001387C70A832784FE93D7870193F7F70F64
:101370009385070013050700EFF09F93130000000B
:10138000130000008320C101032481011301010225
:1013900067800000130101FD23261102232481022E
:1013A00013040103232EA4FC232604FE8327C4FD7B
:1013B00083A7470013071000638AE7021307100092
:1013C00063E2E708130720006384E7006F008012E0
:1013D0008327C4FD83A707009387070913850700A8
:1013E000EFF09F822326A4FE6F00C0108327C4FD68
:1013F00083A707009387070913850700EFF0DF87AE
:1014000093070500138707008327C4FEB3E7E700AF
:101410002326F4FE8327C4FD83A70700938747098B
:1014200013850700EFF05F85930705009397070189
:10143000138707008327C4FEB3E7E7002326F4FEE3
:101440006F00400B8327C4FD83A70700938707091C
:1014500013850700EFF09F899307050013870700A6
:101460008327C4FEB3E7E7002326F4FE8327C4FDE9
:1014700083A707009387470913850700EFF01F87AD
:101480009307050093978700138707008327C4FEFF
:10149000B3E7E7002326F4FE8327C4FD83A70700F4
:1014A0009387870913850700EFF05F849307050092
:1014B00093970701138707008327C4FEB3E7E7006C
:1014C0002326F4FE8327C4FD83A707009387C7095B
:1014D00013850700EFF09F8193070500939787011D
:1014E000138707008327C4FEB3E7E7002326F4FE33
:1014F000130000008327C4FE138507008320C10268
:10150000032481021301010367800000130101FE1F
:10151000232E810013040102F32740F12324F4FE5B
:10152000832784FE2322F4FE232604FE6F00C003DB
:1015300037070040832744FE939657008327C4FE55
:10154000B386F600B717000093870780B387F600CD
:1015500093972700B307F70023A007008327C4FE53
:10156000938717002326F4FE8327C4FEE38207FC3B
:10157000232604FE6F004002370700408327C4FE85
:1015800093972700B307F70023A207008327C4FE21
:10159000938717002326F4FE0327C4FE9307E00178
:1015A000E3FCE7FC37070040832744FE93870720CE
:1015B0009397C700B307F70023A00700B7170000F1
:1015C00093870780F3A747302320F4FE1300000021
:1015D0000324C1011301010267800000130101FE11
:1015E000232E1100232C810013040102B727008051
:1015F000138507E9EFF01FDA2326A4FE8327C4FE34
:1016000093C7F7FF93F7070F2324F4FEB727008053
:1016100083A7479313971700B727008023AAE79261
:10162000B727008003A747939307400063F8E700BC
:10163000B72700801307100023AAE792B72700807E
:1016400083A74793032784FEB367F7002324F4FEA0
:10165000832584FEB7270080138587E8EFF0DFBE7F
:10166000130000008320C101032481011301010242
:1016700067800000130101FD23261102232481024B
:1016800013040103232EA4FC232CB4FCEFF01FE869
:1016900013062000B7250070B7270080138507E9DF
:1016A000EFF05FA313062000B7550070B727008046
:1016B000138587E8EFF01FA2930610001306C002FF
:1016C000B7150070B7270080138587E9EFF04FE565
:1016D000B727008083A7079393850700B72700806B
:1016E000138587E9EFF01F94B7477902138507D672
:1016F000EFE0DFD39307E4FE1306100093850700A5
:10170000B7270080138587E9EFF0CFFE9307050028
:10171000A307F4FE8347F4FEE38E07FC9307E4FE81
:101720001306100093850700B7270080138587E90B
:10173000EFF00FF16FF01FFC130101FF93050000A4
:10174000232481002326110013040500EF0000026A
:10175000B727008003A587938327C5036384070009
:10176000E780070013050400EFF08FBE130101FDB1
:10177000B7270080232E310183A98793232C4101B1
:10178000232A5101232861012326110223248102E7
:10179000232291022320210323267101930A0500AD
:1017A000138A0500130B100083A48914638C0400B2
:1017B00003A444001309F4FF1314240033848400A9
:1017C000635809028320C102032481028324410259
:1017D000032901028329C101032A8101832A4101CE
:1017E000032B0101832BC10013010103678000005B
:1017F000630C0A0083274410638847011309F9FF2B
:101800001304C4FF6FF0DFFB03A7440083274400E9
:101810001307F7FF631C270323A22401E38007FEBD
:1018200083A6841833172B0183AB4400B376D7000B
:1018300063920602E780070003A7440083A7891488
:10184000E31477F7E38CF4FA6FF01FF62322040019
:101850006FF0DFFC83A6C418832544083377D700D4
:101860006318070013850A00E78007006FF0DFFCAC
:1018700013850500E78007006FF01FFC00000000E3
:1018800068656C6C6F000000747261700A00000083
:101890000D0A53797374656D2074696D6572204209
:1018A0006C696E6B79204578616D706C652E200ACD
:1018B0000D204F62736572766520746865204C4513
:1018C000447320626C696E6B696E67206F6E207462
:1018D000686520626F6172642E20546865204C45F3
:1018E00044207061747465726E73206368616E6702
:1018F0006573202065766572792074696D65206155
:101900002073797374656D2074696D657220696EDA
:1019100074657272757074206F63637572730D0AEB
:101920000000000043000000000000000000000074
:101930009018008001000000C0190080C0190080CC
:10194000500700807007008090070080B00700807B
:10195000D0070080F0070080100800803008008069
:10196000500800807008008090080080B008008057
:10197000D0080080F0080080100900803009008045
:10198000500900807009008090090080B009008033
:10199000D0090080F0090080100A0080300A008021
:1019A000500A0080700A0080900A0080B00A00800F
:1019B000D00A0080F00A0080100B0080300B0080FD
:1019C00000000000AC1C0080141D00807C1D008005
:1019D0000000000000000000000000000000000007
:1019E00000000000000000000000000000000000F7
:1019F000000000002419008000000000000000002A
:101A000000000000000000000000000000000000D6
:101A100000000000000000000000000000000000C6
:101A200000000000000000000000000000000000B6
:101A300000000000000000000000000000000000A6
:101A40000000000000000000000000000000000096
:101A50000000000000000000000000000000000086
:101A60000000000000000000010000000000000075
:101A70000E33CDAB34126DE6ECDE05000B0000003A
:101A80000000000000000000000000000000000056
:101A90000000000000000000000000000000000046
:101AA0000000000000000000000000000000000036
:101AB0000000000000000000000000000000000026
:040000058000000077
:00000001FF
